:400000000080002011000000790400007904000008B5044B1A6803F53F5302331A6000F033FA00BFFA46004010B5054C237833B9044B13B10448AFF300800123237010BD50
:40004000F081FF1F0000000078120000084B10B51BB108480849AFF300800848036803B910BD074B002BFBD0BDE81040184700BF0000000078120000F481FF1F0881FF1F5D
:400080000000000000B591B068464021064B1A7800F070F96846402100F0E2F901F07CF811B05DF804FB00BF0C81FF1F00B583B00B4B1B7800F0C2FE0A4B00930A4B0193EF
:4000C0000A480B490B4A0C4B00F0FAF80B4B02221A6004221A6008221A6003B05DF804FB656500402282FF1F4E82FF1F2682FF1F5682FF1F2482FF1F5482FF1F00E200E09D
:4001000008B5012000F0A8FB18B10222094B1A6008BD022000F0A0FB18B10422054B1A6008BD032000F098FB10B10822014B1A6008BD00BF80E200E070B562B600F0E4FB7A
:4001400000F0A6FF03E04FF4167000F043FB504C60784FF4167100F045F963789842F2D14C4B1A884C4B1A804C4B1A884C4B1A804C4B1A884C4B1A804C4800F0FFFF072045
:4001800000F0E8FF4A4800F04BFE012000F034FE484D0120294600F033FB0120032100F043FB454C022626603046294600F028FB3046032100F038FB042323600320294674
:4001C00000F01EFB0320014600F02EFB0823236000F0FEFD00F07CFE00F01EFF00F0CAFE4FF4FA7000F0F6FA294C608800F03AFE608800F089FE608800F086FE4FF4FA7031
:4002000000F0E8FA2D4D288800F032FE288800F0D3FE288800F07EFE4FF4FA7000F0DAFAA08800F025FEA08800F0C6FEA08800F071FE4FF4FA7000F0CDFA288800F01EFEE6
:40024000288800F0BFFE288800F06AFEFA2000F0C1FAE08800F012FE208900F0B3FEE08800F05EFEFA2000F0B5FAA488204600F0A3FE0A3CA4B2064B9888A0F146039C424D
:40028000F4D100F099FE024BD88800F09BFEEDE70C81FF1F5482FF1F2C82FF1F2282FF1F4C82FF1F4E82FF1F1882FF1F85000000AD0000000101000000E100E00C82FF1F88
:4002C0002DE9F04180460F4616461D46154C164B18783B210E22234600F028F82278637843EA0223A8F80030A278E37843EA02233B802279637943EA02233380227A637A78
:4003000043EA02232B80A27AE37A43EA0223069A1380227B637B43EA0223079A1380BDE8F08100BF3482FF1F5082FF1FF8B504460E4617461D46002100F060FC304600F04A
:40034000EFFC2046012100F099FC002206E06E1C012000F011FD287022463546531CDCB27B1E9A42F3DB002000F006FD287000F0BBFCF8BD2DE9F8438046894615464F1E64
:40038000FFB200214A4600F056FF00261FE000F08DFE08F806000136F6B2002404E00134E4B2012000F016FA00F096FEB0FA80F04009AC4228BF00200028F0D1B74206D287
:4003C000404600214A4600F036FF012307E000F083FE03460028DAD1002208F806201846BDE8F88370B582B004460D461B4B186800F08AFE00F070FEB0FA80F04009002D03
:4004000008BF002010B1012000F0E4F9684608213222FFF7AFFF6846104B5968022200F012FFA8B10D4E06EB8403986800F06CFE284600F0CFF9684608213222FFF79AFF02
:4004400068467168022200F0FEFE18B9FF2002E0FF2000E0204602B070BD00BF2481FF1F70B506460D46002403E0305D00F040FE0134A542F9DC70BD08B500F0A5FE0368EE
:400480000C2B00D1FEE7FEE708B5104E104D16E029686B68AC68002204E051F8040B43F8040B0432A242F8D1E868002203E0002143F8041B04328242F9D11035013E002EB3
:4004C000E6D100F087FEFFF737FEFEE701000000A013000008B5124A124B1A60124A136843F40073136000230AE0032B03D80F4A52F8231000E00E490E4A42F8231001330C
:400500002F2BF2D90C4B1A780C4B1A70094A0C4B1A6000F0BBF800220A4B1A6008BD00BF0004FA050CED00E014ED00E000000000790400000080FF1FBC7600400481FF1FA3
:4005400008ED00E00081FF1FFEE700BFF0B40022174611E050F82760F3B226F0FF0608E001EB420511F812406D78A5550132013BDBB2002BF4D10137192FEBD9F0BC7047D8
:40058000064B1B78DBB203F00701054A11701B09013213704422034B1A707047CF0100496E5800407658004008B50A46002100F042FE08BD38B51925284B1D801823284AF8
:4005C00013703121023211800232137040F2E73102321180023213700222224B1A7008224FF040231A70032103F5007319701E4B1B78DBB21D490B701D4B1A8041F2512249
:40060000023B1A8000240CE01A4B1B7803F0010343EA440404F003044FF4F07000F0C4FD013D0DB1032CEFD115B90320FFF78CFF114B4FF480721A8007221A7000220F496B
:400640000A704820023108701A700222033B1A700B4A137843F00703137038BD80400040824000400043004008010049A1460040224200402542004004400040064000408F
:40068000A243004008B500F0CBFD08BD38B572B63A4A137843F00403137000240CE0384963001A1952000A4423445B00C8589188FFF77AFF0134E4B2062CF0D900240BE0F4
:4006C0002F49A3001A1952000A44D06A116B0622FFF7D8FF0134E4B2002CF1D04FF090402849FFF733FF284A137843F0020313701032137843F002031370244C237843F083
:4007000040032370A2F58632513A137843F0100313701F481F490822FFF7B4FF1E481F490A22FFF7AFFF1E481E490822FFF7AAFF1D481E490822FFF7A5FF1D481D4908225A
:40074000FFF7A0FF1C481D490822FFF79BFF1C4A137843F0080313701A4D61232B70FFF729FF81232B700122174B1A70FFF708FF164821460E22FFF785FF38BDE8460040ED
:40078000401300006800004803500140A04300400251004048060048C051004050060048F25100405C0600481251004064060048225100406C0600483251004074060048F3
:4007C000224300400048004004000840B043004001BE704710B5044605E0084B186800F0E3FCA4F50044B4F5004FF6D8034B586800FB04F000F0D8FC10BD00BF7C81FF1F36
:4008000070B504460E46074B1D681F2802D90020FFF7DEFF04F01F04103455F8240045F8246070BD08ED00E038B504460D46072902D90020FFF7CCFF1F2C02D90020FFF7C8
:40084000C7FF04F01F0000F1604000F564406D01EDB2057038BD00BF10B504461F2802D90020FFF7B5FF044B186804F01F04E04000F0010010BD00BF00E100E038B50222EF
:40088000114B1A7081220E3B1A70082202331A700F2511331D70002401331C704FF400420A4B1A6028460721FFF7BEFF28460849FFF7A6FF1022074B1A70074B1C70074BD5
:4008C0001C70074B1C7038BDD649004080E100E0310900005A82FF1F6582FF1F6482FF1F6682FF1F08B500F067FC064A137843F0040313701032137843F00403137000F094
:400900005FFC08BDA543004008B5074B1B7823B9FFF7B4FF0122044B1A70FFF7E3FF4FF40042024B1A6008BD1082FF1F00E100E038B5A44B1C78E4B2A34B1B7813F0400F19
:4009400000F0378114F0010F00F01B819E4B1B78453B052B00F21281DFE813F006008200100110010600DE0004F0DF0504F00A04082C42D1944B1B78DBB2452B35D1934BB2
:400980001B7813F0FF0F10D0914B1B681B78DBB2904A137004228B4B1A7001228E4B1A704622894B1A702C46EBE08C4B1B7813F0020F0DD08A4A137843F00A0313706022C9
:4009C000814B1A704FF40042864B1A602C46D8E0854A137843F0100313701022834B1A700422023B1A702C46CBE00022754B1A704A22754B1A702C46C3E00A2C2BD1784AC5
:400A0000137843F0A0031370744B1B7813F0020F14D06D4B1B7813F0080F01D0092300E00A236F4A11780B4313706022664B1A704FF400426B4B1A602C46A2E06A4A137861
:400A400043F0100313701022684B1A700422023B1A702C4695E00020FFF7BAFE2C4690E014F0020F35D15C4B1B78584A1278DBB2934210D2584A1378DBB255490968CB5C05
:400A8000DBB254490B7004214E4B197013780133DBB2137075E0514B1B7813F0020F0CD04F4A137843F00A0313706022464B1A704FF400424B4B1A6063E04B4A137843F058
:400AC000100313701022494B1A700422023B1A7057E0424B1B7813F0020F0CD0404A137843F09A0313706022374B1A704FF400423C4B1A6045E03C4A137843F01003137061
:400B000010223A4B1A700422023B1A70344A137843F09003137034E0354A1378DBB2354908682C490978C9B2C15413780133DBB213701378304A1278DBB2934203D210224F
:400B4000204B1A701DE0254B1B7813F0020F0CD0234A137843F00903137060221A4B1A704FF400421F4B1A600BE01F4A137843F0100313700022134B1A7002E00020FFF752
:400B800027FE14F0200F1CD00F4B1B7813F0080F01D0012300E00223114A11780B431370114A137803F0EF0313701022064B1A7038BD054B1B7813F0100F02D11022024B94
:400BC0001A7038BDD74900405A82FF1F6982FF1F6082FF1FD84900406682FF1F6782FF1F6582FF1F80E100E0D6490040D94900406482FF1F5C82FF1F6882FF1F1A4B1B789E
:400C0000DBB2102B29D1194B1B7813F0080F26D14FF40042164B1A604000C0B229B140F001004922104B1A7002E045220E4B1A70104B1870012201331A700F4B1B7813F09D
:400C4000010FFAD00C4B1B7803F00A030A2B08D11022054B1A700320704702207047012070470020704700BF5A82FF1FD949004080E100E0D8490040D7490040164B1B7823
:400C800013F0040F23D04000C0B229B140F001004922124B1A7002E04522104B1A70104B1870122201331A700422023B1A700D4B1B7813F0010FFAD00A4B1B7803F00A037C
:400CC0000A2B06D11022054B1A7003207047022070470020704700BFD94900405A82FF1FD8490040D74900400A4B1B7813F0040F0ED01023074A13700421023A1170064A61
:400D00001370064B1B7813F0210FFAD00020704702207047D94900405A82FF1FD7490040114B1B7813F0040F1BD0104B18700422013B1A7046220E4B1A700E4B1B7813F0EA
:400D4000010FFAD00B4B1B7813F0020F04D16022074B1A70002070476022054B1A70032070470220704700BFD9490040D84900405A82FF1FD7490040114B1B7813F0040FA2
:400D80001BD0104B1B78DBB2492B05D100220E4B1A704A220B4B1A700B4B1B7813F0010FFAD00A4B1B78DBB218B11021064A117004E06021034A117000E0002318467047E1
:400DC000D94900405A82FF1FD7490040D8490040054A137843F0020313701032137843F002031370704700BFA2430040014B1B681864704708ED00E04001C0B2014B1870C0
:400E0000704700BF00E400E00122014B1A60704700E100E00122014B1A60704780E100E010B50446FFF7F6FF2046FFF7DFFF0720FFF7E2FFFFF7E8FF10BD00BF0122014B2C
:400E40001A60704780E200E0024A137843F080031370704777650040014B1880704700BF0C6A0040014B1880704700BF8C6A0040014B1880704700BF4C6A0040014B188048
:400E8000704700BF6C6A004008B5104A137803F0C00343F0240313701F32137843F0010313700132137843F0010313704FF49650FFF7D2FF4FF49650FFF7D4FF0020FFF76B
:400EC000D7FF0020FFF7DAFF08BD00BF7765004008B5054B1B7823B9FFF7D6FF0122024B1A70FFF7B1FF08BD1182FF1F024A137843F080031370704775640040014B18806C
:400F0000704700BF08680040014B1880704700BF88680040014B1880704700BF48680040014B1880704700BF6868004008B5104A137803F0C00343F0240313701F3213783C
:400F400043F0010313700132137843F0010313704FF49650FFF7D2FF4FF49650FFF7D4FF0020FFF7D7FF0020FFF7DAFF08BD00BF7564004008B5054B1B7823B9FFF7D6FF9E
:400F80000122024B1A70FFF7B1FF08BD1282FF1F024A137843F080031370704773640040014B1880704700BF04680040014B1880704700BF84680040014B1880704700BF56
:400FC00044680040014B1880704700BF6468004008B5104A137803F0C00343F0240313701F32137843F0010313700132137843F0010313704FF49650FFF7D2FF4FF4965043
:40100000FFF7D4FF0020FFF7D7FF0020FFF7DAFF08BD00BF7364004008B5054B1B7823B9FFF7D6FF0122024B1A70FFF7B1FF08BD1382FF1F7222074B1A70202201331A70A2
:4010400006225F3B1A70472210331A7000224D331A7070478965004010B500F0ADF804460A4A137843F0200313700132137843F010031370023A137843F01003137000F07A
:4010800055F8204600F09CF810BD00BF9965004008B5054B1B7823B9FFF7CCFF0122024B1A70FFF7D9FF08BD1482FF1F084B1B78DBB213F0200F06D0064A1078C0B213F0E9
:4010C0001E0F02D17047002070470020704700BF6A6500404A650040044B1B7813F0200F01D0012070470020704700BF6A650040034B1B7813F0040FFAD1024B187070471E
:40110000686500404865004038B5074B1B782BB938BDFFF7EDFF0134A4B201E005460024285D0028F5D138BD1482FF1F054A137843F0010313701032137843F00103137016
:40114000704700BFA2430040014B1B685864704708ED00E04001C0B2014B1870704700BF01E400E00222014B1A60704700E100E00222014B1A60704780E100E010B50446A8
:40118000FFF7F6FF2046FFF7DFFF0720FFF7E2FFFFF7E8FF10BD00BF0222014B1A60704780E200E0000000000230800803D000BF01380046FCD17047EFF3108072B6704720
:4011C00080F31088704700BF014B1868704700BFEC81FF1F0E4B70B51E460E4C0025E41AA410A54204D056F8253098470135F8E700F0C4F8084B094C1E46E41AA4100025AD
:40120000A54204D056F8253098470135F8E770BD8813000088130000881300009013000010B5431E0A44914204D011F8014B03F8014FF8E710BD03460244934202D003F823
:40124000011BFAE7704770B5A2B1451E01396B7811F8014F6E1CA34206D16FF00104641B1444E04202D11C46181B70BD3546002BEDD1F8E7104670BD00000000256420259D
:40128000642025642025642025642025642025642025642025640000415400004F4B00004552524F5200000041542B42415544340000000041542B42415544350000000051
:4012C00041542B42415544360000000041542B42415544370000000041542B42415544380000000041542B42415544390000000041542B4241554441000000004E4F206462
:401300006576696365000000393630300000000031393230300000003338343030000000353736303000000031313532303000003233303430300000343630383030000051
:40134000C8490040190040510040300000000140001000140140000800400140000A004C01400002005001402000000060520040400600480600000043000000F8B500BF54
:40138000F8BC08BC9E4670474D000000D5040000F8B500BFF8BC08BC9E46704729000000B01300000881FF1FE800000080000000000000003202C01222011E0FE010000034
:4013C0007C120000A2129F017D000000981200009C120000A0120000A8120000B4120000C0120000CC120000D8120000E4120000F0120000FC120000081300001013000026
:4014000018130000201300002813000030130000381300000000710238019C00680034001A000D000000E02EC05D00001800000000366E0100000000000000000000000092
:4014400000000000000000000000000000000000000000007813000000000000000000000000000000000000000000000000000000000000000000000000000000000000E1
:4014800000000000000000000000000000000000000000008C81FF1F0000000000000000000000000000000000000000000000000000000000000000000000000000000001
:4014C00000000000000000000000000000000000000000000000000000000000000000000000000000000000000000000000000000000000000000000000000000000000EC
:4015000000000000000000000000000000000000000000000000000000000000000000000000000000000000000000000000000000000000000000000000000000000000AB
:40154000000000000000000000000000000000000000000000000000000000000000000000000000000000000000000000000000000000000000000000000000000000006B
:40158000000000000000000000000000000000000000000000000000000000000000000000000000000000000000000000000000000000000000000000000000000000002B
:020000040003F7
:0200000480007A
:400000000445004003520040046500403A02014019030140390401401405014001070140331401401D1501403A1601401717014052180140361901406D1A0140561B01404E
:40004000034001400741014009420140054301400A48014013490140084C01400F4D0140065001400251014000020A0110021802012078017901850D880F89728A384060FE
:40008000410349FF4AFF4BFF4DA04F0450185A045D015F01604062C06440654066C068C06AC06CC06EC0920199019A02A802AB01B401B602B701C060C102C501C620C705E1
:4000C000C819C9FFCAFFCBFFCDAFCE0FCF04D018D280D804D904DA04DB04DC11DD11DF01E040E2C0E440E540E6C0E8C0EAC0ECC0EEC009020A04100819101A041B90230288
:400100002910302041204610482049104F2050085120521071028782C20AC402CA04CC04D044D2244030410249FF4AFF4BFF4DA04F0450185A045D015F01604062C06440B6
:40014000654066C068C06AC06CC06EC081018B0196029802AE01B002B101B201C030C102C515C620C80BC9FFCAFFCBFFCDAFCE0FCF04D018D280D804D904DA04DB04DC1198
:40018000DD11DF01E040E2C0E440E540E6C0E8C0EAC0ECC0EEC00D080F0817801C101D081E8027403C103F024010412045284F0A552077808340C260C480CEA0D066AE40D0
:4001C000404349FF4AFF4BFF4F01501852805A045B045D225F016040624064406540668068806A806C806E809201AA01B001BE01C042C5ECC702C813C9FFCAFFCBFFCD83AE
:40020000CE03CF01D018D401D604D804DA04DB04DD22DF01E040E240E440E540E680E880EA80EC80EE800D0216041E8041024308450246044D044F01560457085D045E80F2
:400240005F01660171028201B501B701C210C440D0A3D6D0D880E008E220E820EA41EE4016012C0130014060410349FF4AFF4BFF4DA04F04501858045A045C015D015F0110
:40028000604062C06440654066C068C06AC06CC06EC092019A02A402B002B401C060C102C501C625C80DC9FFCAFFCBFFCDAFCE0FCF04D018D280D804DA04DB04DC01DD1197
:4002C000DF01E040E2C0E440E540E6C0E8C0EAC0ECC0EEC009020A040F201020158019111A041B101F0141204610482049104F20516052107102C22AC484D044D224E20193
:40030000EA040208040A06141413160C18031A141E15241326042D013010320F35013A083E013F1040244103450C46C047EB483949FF4AFF4BFF4EF04F44500C5401580457
:4003400059045A045B045F0166C06A406B0280FF811084F38518860C881F89088AE08CC38D049041913C934297239AE39C1C9D7F9EE3A008A404A704A80CA967AB18AC82DF
:40038000AD1CAF61B0C0B11FB210B340B40FB538B62CB908BAA0BB82BE04D602D711D804D904DB04DF010064028005050A0A0B800C440E100F091080120213241704180464
:4003C00019921A201E90210822A1270829982F0232853480368038283A023B804444450447044F08560857125A205D015E805F18633069146B027094720273249E01AA01A8
:40040000C03FC2EBC42FCA1ECC0BCE0FD0E0D6F4E201050309030C020D010E1C0F02100811021222130117041B081F082040244E2704284E2C042E23300E310332013440D4
:400440003504363037083E403F50402641044203440145C046E0480A49FF4AFF4BFF4C624DA04EF04F41500C54185604580459045A045B045F016640670269106A306B1006
:400480006D106E106F12824C8340844C8514861389D08B0C91099310941195209646970399109C209E03A5CCA608A711A811A99CAA0EAB02B030B20FB3C0B44AB51FB72033
:4004C000B802B908BA28BF44C002C640C9FFCA07CBFFCC40CD20CEF0CF05D008D804D904DA04DF01E040E1A8E240E3200040050509020E100F0110021114130214181610A8
:40050000184119281A081D051F14218222022304254027282B202F143080310A322034103501370839143B803E183F01408541044720488049204F015320561059026180DF
:400540006201630479087A207C087D087F10854088028B40900491149210944096089781988099029A089B029D0D9E01A108A220A504A602AD01AF02B010B180C031C2A8DD
:40058000C46FCA62CCEFCEEED02FD204D601D80DE00AE220E820EA0133103580CC30634287419D809F10D640D840E6503E105308571083109D809F10CE20D460E6809610C7
:4005C0009D809F10AF08EE4053805402828096109F10A980D420D620E280EA2013021640768078808310864088809A809F12AA10B302B402B780C430DC80DE20E010E2202A
:40060000EA8012201320170478107F408304C40EDE03108071028502874088808A209780A220AB20B010C408DC01E204E601E804000208020A0210071A061C01000F03C048
:400640000A8C00004300000001626200600000008000408C8F008F00000000000009090009000000040B0B00000000000100000000000000010000000000000000000000DB
:40068000000000000000000000000000000000000000000000000000000000000000000000000000000000000000000000000000000000000000000000000000000000003A
:4006C00000000000000000000000000000000000000000000000000000000000000000000000000000000000000000000000000000000000000000000000000000000000FA
:4007000000000000000000000000000000000000000000000000000000000000000000000000000000000000000000000000000000000000000000000000000000000000B9
:400740000000000000000000000000000000000000000000000000000000000000000000000000000000000000000000000000000000000000000000000000000000000079
:0200000490006A
:0400000000004005B7
:0200000490105A
:04000000BC90ACAF55
:0200000490303A
:020000003CF5CD
:0200000490402A
:4000000000000000000000000000000000000000000000000000000000000000000000000000000000000000000000000000000000000000000000000000000000000000C0
:400040000000000000000000000000000000000000000000000000000000000000000000000000000000000000000000000000000000000000000000000000000000000080
:400080000000000000000000000000000000000000000000000000000000000000000000000000000000000000000000000000000000000000000000000000000000000040
:4000C0000000000000000000000000000000000000000000000000000000000000000000000000000000000000000000000000000000000000000000000000000000000000
:0200000490501A
:0C00000000012E16106900012E1F4D5E3D
:00000001FF